:020000040800F2
:10000000005000208D1A0008E1050008E3050008F3
:10001000E5050008E7050008E90500080000000004
:10002000000000000000000000000000EB050008D8
:10003000ED05000800000000EF050008F1050008CC
:10004000D51A0008D51A0008D51A0008D51A0008D4
:10005000D51A0008D51A0008D51A0008D51A0008C4
:10006000D51A0008D51A0008D51A0008D51A0008B4
:10007000D51A0008D51A0008D51A0008D51A0008A4
:10008000D51A0008D51A0008D51A0008D51A000894
:10009000D51A0008D51A0008D51A0008D51A000884
:1000A000D51A0008D51A0008D51A0008F905000865
:1000B00009060008D51A0008D51A0008D51A000844
:1000C000D51A0008D51A0008D51A0008D51A000854
:1000D000D51A0008D51A0008D51A0008D51A000844
:1000E000D51A0008D51A0008D51A0008000000002B
:1000F0000000000000000000000000000000000000
:0C01000000000000000000005FF808F1A3
:10010C0010B5054C237833B9044B13B10448AFF345
:10011C0000800123237010BD0C00002000000000A3
:10012C00201B000808B5034B1BB103490348AFF370
:10013C00008008BD0000000010000020201B0008FB
:10014C0072B6FEE700B591B0002309930B930C93A4
:10015C0001930293039304930593012106914FF4A9
:10016C008032079208930A9102230D930E924FF45A
:10017C00E0130F9306A800F0A9FB80B90F2301939D
:10018C0002210291002303934FF4806204920593A1
:10019C0001A800F0D9FD20B911B05DF804FBFFF700
:1001AC00CFFFFFF7CDFF08B500F056FBFFF7CAFFF6
:1001BC0000F008F800F0CCF800F0AEF900F078F898
:1001CC00FEE700002DE9F04389B000240494059467
:1001DC0006940794324B9A6942F010029A619A691C
:1001EC0002F010020092009A9A6942F020029A6181
:1001FC009A6902F020020192019A9A6942F0040273
:10020C009A619A6902F004020292029A9A6942F087
:10021C0008029A619B6903F008030393039BDFF8C0
:10022C00889022464FF40051484600F069FFDFF8F1
:10023C007C802246FC21404600F062FF194D22468C
:10024C004FF62741284600F05BFF4FF40053049310
:10025C000127059706940226079604A9484600F044
:10026C003FFEFC23049305970694079604A9404689
:10027C0000F036FE4FF62743049305970694079635
:10028C0004A9284600F02CFE4FF440730493059407
:10029C00069404A9284600F023FE09B0BDE8F083BB
:1002AC0000100240000C0140001001400008014009
:1002BC0008B50B480B4B03600B4B4360002383606A
:1002CC00C3604FF48042026143618361C361036286
:1002DC0000F0BEF900B908BDFFF732FFFBE700BF25
:1002EC002800002000540040A086010010B586B004
:1002FC00002302930393049305930268114B9A42D3
:10030C0001D006B010BD104CA36943F00803A361E3
:10031C00A36903F008030093009BC02302931223EC
:10032C0003930323059302A9084800F0D9FDE36960
:10033C0043F40013E361E36903F400130193019B9D
:10034C00DFE700BF0054004000100240000C0140E9
:10035C0000B58BB00023069307930893099304937D
:10036C00059300930193029303932E482E4A026047
:10037C004722426083604FF6FF72C26003614361A3
:10038C00836101F029F9002833D14FF4805306938F
:10039C0006A9244801F0CFFA70BB224801F074F989
:1003AC0068BB00230493059304A91E4801F030FB9D
:1003BC0040BB0022009201230193029203926946F2
:1003CC00184801F053FA00BB04226946154801F0A5
:1003DC004DFAE8B908226946124801F047FAD0B93B
:1003EC000C2269460F4801F041FAB8B90BB05DF820
:1003FC0004FBFFF7A5FEC8E7FFF7A2FECDE7FFF76A
:10040C009FFECEE7FFF79CFED3E7FFF799FEDBE7F5
:10041C00FFF796FEDEE7FFF793FEE1E7FFF790FEAE
:10042C00E4E700BF7C000020002C014010B588B030
:10043C00002304930593069307930368204A934281
:10044C0004D0B3F1804F27D008B010BD1D4B9A6972
:10045C0042F400629A619A6902F400620192019A74
:10046C009A6942F004029A619B6903F004030293B7
:10047C00029B4FF47063049300240594069404A922
:10048C00114800F02DFD224621461B2000F050FEA5
:10049C001B2000F081FED7E703F50433DA6942F044
:1004AC000102DA61DB6903F001030393039B002271
:1004BC0011461C2000F03CFE1C2000F06DFEC3E732
:1004CC00002C0140001002400008014000B587B02C
:1004DC00002302930393049305930368B3F1804FB5
:1004EC0002D007B05DF804FB03F504339A6942F0BF
:1004FC0004029A619B6903F004030193019B03239B
:10050C00029302230393059302A9024800F0E8FC2E
:10051C00E7E700BF0008014000B58FB000230A9345
:10052C000B930C930D9308930993019302930393EC
:10053C00049305930693079325484FF0804202607D
:10054C00436083604FF6FF72C2600361836101F008
:10055C0043F858BB4FF480530A930AA91C4801F086
:10056C00EAF930BB1A4801F063F828BB0023089362
:10057C00099308A9164801F04BFA00BB60230193BC
:10058C00002202920392059201A9114801F0DAF8B7
:10059C00C0B904220DEB02010D4801F0D3F8A0B94B
:1005AC000B48FFF793FF0FB05DF804FBFFF7C8FD96
:1005BC00D0E7FFF7C5FDD5E7FFF7C2FDD6E7FFF79C
:1005CC00BFFDDBE7FFF7BCFDE3E7FFF7B9FDE7E7AE
:1005DC00C4000020FEE7FEE7FEE7FEE7FEE77047FB
:1005EC007047704708B500F049F908BD08B50248D6
:1005FC0000F0FBFE08BD00BF7C00002008B50248DF
:10060C0000F0F3FE08BD00BFC400002082B00E4B0A
:10061C009A6942F001029A619A6902F00102009211
:10062C00009ADA6942F08052DA61DB6903F0805398
:10063C000193019B054A536823F0E06343F0007378
:10064C00536002B0704700BF001002400000014030
:10065C00002800F0CC80F8B5044690F83D30002B13
:10066C0077D0242384F83D302268136823F00103EB
:10067C0013602268136843F4004313602268136804
:10068C0023F40043136000F01BFC62685A4B9A423F
:10069C0064D85A4B98428CBF00230123002B40F0A6
:1006AC00A880574DA5FB0035AF0C2668716821F06A
:1006BC003F0141EA9541716021680B6A23F03F03C9
:1006CC0065684D4A95424FD87A1C13430B622568D6
:1006DC00E96921F44F4121F0FF016368464A9342D6
:1006EC004CD801385B00B0FBF3F0013040F6FC73E2
:1006FC00184278D0C0F30B030B43EB6121680B68F5
:10070C0023F0C003E269206A024313430B602168A3
:10071C008B6823F4034323F0FF032269E068024350
:10072C0013438B602168CB6823F0FF036269A069D7
:10073C0002431343CB602268136843F00103136038
:10074C0000202064202384F83D30206384F83E0090
:10075C00F8BD80F83C30FFF7C9FD82E7294B984281
:10076C008CBF0023012399E74FF4967202FB07F22A
:10077C00254DA5FB025292090132A6E7A268BAB92F
:10078C00461E03EB4307B6FBF7F60136C6F30B0622
:10079C00B6FA86F6760946BBC2B9421E03EB430392
:1007AC00B2FBF3F20132C2F30B0242F40043A3E7B3
:1007BC00461E03EB830707EB8707B6FBF7F60136FC
:1007CC00C6F30B06B6FA86F67609E4E7421E03EB8F
:1007DC00830303EB8303B2FBF3F20132C2F30B028C
:1007EC0042F4404388E7042386E7012384E7012091
:1007FC0070470120ACE700BFA08601007F841E007B
:10080C0083DE1B43FF083D00D34D621010B5044638
:10081C000E4B18784FF47A73B3FBF0F30C4A106854
:10082C00B0FBF3F000F0C6FC68B90F2C01D9012025
:10083C000AE0002221464FF0FF3000F079FC054B16
:10084C001C60002000E0012010BD00BF0000002053
:10085C00080000200400002008B5074A136843F084
:10086C0010031360032000F051FC0F20FFF7CEFFA4
:10087C00FFF7CCFE002008BD00200240034A11689F
:10088C00034B1B780B441360704700BF0C01002016
:10089C0000000020014B1868704700BF0C010020BD
:1008AC0082B0084B1B68084AA2FB03235B0A00FBBF
:1008BC0003F3019300BF019B5A1E0192002BF9D147
:1008CC0002B0704708000020D34D6210002800F0E1
:1008DC00F18170B582B00446036813F0010F2CD07F
:1008EC00AA4B5B6803F00C03042B1DD0A74B5B6871
:1008FC0003F00C03082B12D06368B3F5803F41D092
:10090C00002B55D103F1804303F504331A6822F40C
:10091C0080321A601A6822F480221A6037E09B4BEE
:10092C005B6813F4803FE7D0984B1B6813F4003FCF
:10093C0003D06368002B00F0BF81236813F0020F13
:10094C0075D0924B5B6813F00C0F5FD08F4B5B68CC
:10095C0003F00C03082B54D02369002B00F0898082
:10096C008B4B01221A60FFF795FF0546874B1B68DE
:10097C0013F0020F74D1FFF78DFF401B0228F5D93D
:10098C0003209EE1814A136843F48033136063684B
:10099C0043B3FFF77FFF05467C4B1B6813F4003F06
:1009AC00CBD1FFF777FF401B6428F5D9032088E1F2
:1009BC00B3F5A02F09D0754B1A6822F480321A6057
:1009CC001A6822F480221A60E1E703F18043A3F550
:1009DC003C331A6842F480221A601A6842F480325E
:1009EC001A60D4E7FFF756FF0546684B1B6813F4F3
:1009FC00003FA2D0FFF74EFF401B6428F5D903201F
:100A0C005FE1624B5B6813F4803FA5D15F4B1B68C1
:100A1C0013F0020F03D02369012B40F04F815B4A86
:100A2C00136823F0F803616943EAC1031360236878
:100A3C0013F0080F32D0A369002B45D0554B01227F
:100A4C001A60FFF727FF0546504B5B6A13F0020F45
:100A5C0021D1FFF71FFF401B0228F5D9032030E1FD
:100A6C004A4A136823F0F803616943EAC10313602F
:100A7C00DDE7474B00221A60FFF70CFF0546434B9E
:100A8C001B6813F0020FD2D0FFF704FF401B0228A3
:100A9C00F5D9032015E10120FFF702FF236813F0BD
:100AAC00040F00F09780394BDB6913F0805F1DD188
:100ABC00364BDA6942F08052DA61DB6903F080531D
:100ACC000193019B012512E0324B00221A60FFF7C3
:100ADC00E1FE05462D4B5B6A13F0020FDED0FFF7EB
:100AEC00D9FE401B0228F5D90320EAE000252A4B49
:100AFC001B6813F4807F11D0E368012B22D0002BEC
:100B0C0038D103F1804303F504331A6A22F0010251
:100B1C001A621A6A22F004021A6218E01E4A13685A
:100B2C0043F480731360FFF7B5FE06461A4B1B683F
:100B3C0013F4807FE0D1FFF7ADFE801B6428F5D95C
:100B4C000320BEE0114A136A43F001031362E36809
:100B5C0073B3FFF79FFE06460C4B1B6A13F0020F94
:100B6C0037D1FFF797FE801B41F288339842F3D9B7
:100B7C000320A6E0052B11D0044B1A6A22F00102C7
:100B8C001A621A6A22F004021A62E0E700100240AC
:100B9C000000424280044242007000404D4B1A6AF1
:100BAC0042F004021A621A6A42F001021A62CEE79B
:100BBC00FFF770FE0646474B1B6A13F0020F08D076
:100BCC00FFF768FE801B41F288339842F3D903206B
:100BDC0077E0E5B9E369002B72D03E4A526802F027
:100BEC000C02082A56D0022B17D03B4B00221A605D
:100BFC00FFF750FE0446374B1B6813F0007F47D0BD
:100C0C00FFF748FE001B0228F5D9032059E0314AB2
:100C1C00D36923F08053D361DCE72F4B00221A6099
:100C2C00FFF738FE05462B4B1B6813F0007F06D0F0
:100C3C00FFF730FE401B0228F5D9032041E0236A60
:100C4C00B3F5803F1AD023494B6823F47413226AFE
:100C5C00606A024313434B601F4B01221A60FFF77B
:100C6C0019FE04461B4B1B6813F0007F0ED1FFF7D7
:100C7C0011FE001B0228F5D9032022E0154A536807
:100C8C0023F40033A1680B435360DCE7002018E029
:100C9C00002016E0012B16D00E4B5B6803F480315C
:100CAC00226A914211D103F47013626A93420ED1FD
:100CBC00002006E001207047012002E0012000E046
:100CCC00002002B070BD0120FBE70120F9E70120F4
:100CDC00F7E700BF001002406000424286B0164B9E
:100CEC000FCB0DF1180C0CE90F0040F20123ADF8FD
:100CFC000430124B5B6803F00C02082A02D0104837
:100D0C0006B07047C3F38342624412F8102C13F4FC
:100D1C00803F0CD0094B5B68C3F34043634413F82A
:100D2C00143C074800FB02F0B0FBF3F0E8E7054881
:100D3C0000FB02F0E4E700BF381B00080010024083
:100D4C0000127A0000093D00002800F0A08070B568
:100D5C000D460446524B1B6803F007038B420BD223
:100D6C004F4A136823F007030B431360136803F017
:100D7C0007038B4240F08D80236813F0020F17D0CD
:100D8C0013F0040F04D0474A536843F4E0635360F4
:100D9C00236813F0080F04D0424A536843F460539D
:100DAC005360404A536823F0F003A1680B4353602F
:100DBC00236813F0010F31D06368012B20D0022B74
:100DCC0025D0384A126812F0020F64D035494A68AF
:100DDC0022F0030213434B60FFF75CFD0646314BD8
:100DEC005B6803F00C036268B3EB820F16D0FFF75D
:100DFC0051FD801B41F288339842F0D9032045E025
:100E0C00284A126812F4003FE0D101203EE0254A46
:100E1C00126812F0007FD9D1012037E0204B1B68FB
:100E2C0003F00703AB420AD91D4A136823F00703EA
:100E3C002B431360136803F00703AB422DD12368D7
:100E4C0013F0040F06D0174A536823F4E063E168EB
:100E5C000B435360236813F0080F07D0114A5368F3
:100E6C0023F46053216943EAC1035360FFF736FF53
:100E7C000C4B5B68C3F303130B4AD35CD8400B4B8E
:100E8C0018600B4B1868FFF7C1FC002070BD0120E7
:100E9C0070470120FAE70120F8E70120F6E700BFD0
:100EAC0000200240001002404C1B000808000020EB
:100EBC0004000020014B1868704700BF0800002098
:100ECC0008B5FFF7F7FF044B5B68C3F30223034A33
:100EDC00D35CD84008BD00BF001002405C1B00086A
:100EEC00F0B482B000252C46A3E07F4FBB4210D05B
:100EFC0007D97E4FBB420CD007F58037BB4208D0D8
:100F0C0013E0A7F58017BB4203D007F57027BB424F
:100F1C0007D18B68002B58D0012B51D0426108258A
:100F2C0003E0A7F58017BB42F3D0FF2E4FD88446C1
:100F3C00FF2E4FD8A200DCF800300F27974023EA91
:100F4C00070305FA02F21343CCF800304B6813F098
:100F5C00805F6DD0664B9A6942F001029A619B6981
:100F6C0003F001030193019BA208971C614B53F8FA
:100F7C00273004F00307BF004FF00F0C0CFA07FCEE
:100F8C0023EA0C0C5C4B98422AD003F58063984200
:100F9C0000F08A8003F58063984200F0878003F5A7
:100FAC00806398421AD004231BE0CD68BDE7CD685E
:100FBC000435BAE7CD680835B7E7CD680C35B4E72A
:100FCC0002610825B1E70025AFE70425ADE700F184
:100FDC00040CADE7A4F108029200ACE7032300E097
:100FEC000023BB4043EA0C030232424F47F8223045
:100FFC004B6813F4803F5BD0404A13683343136053
:10100C004B6813F4003F59D03C4A53683343536048
:10101C004B6813F4801F57D0384A9368334393605E
:10102C004B6813F4001F55D0344AD3681E43D66066
:10103C0001340B6833FA04F252D00122A24003EAC5
:10104C00020632EA0303F3D14B68122B3FF64DAF85
:10105C00122B3FF66AAF01A757F823F01F0F0008B9
:10106C00B70F0008C10F0008D30F0008370F000896
:10107C00370F0008370F0008370F0008370F00082C
:10108C00370F0008370F0008370F0008370F00081C
:10109C00370F0008370F0008370F0008370F00080C
:1010AC00BB0F0008C70F000801239AE7022398E73B
:1010BC00124A136823EA06031360A1E70F4A536828
:1010CC0023EA06035360A3E70C4A936823EA06035A
:1010DC009360A5E7094AD36823EA0606D660A7E71A
:1010EC0002B0F0BC704700BF0000221000003110AD
:1010FC0000100240000001400008014000040140C3
:10110C000AB101617047090401617047074AD3684D
:10111C0023F4E0631B041B0C000200F4E0600343A7
:10112C0043F0BF6343F40033D360704700ED00E03D
:10113C0030B4174BDB68C3F30223C3F10704042C50
:10114C0028BF04241D1D062D18D9033B4FF0FF3575
:10115C0005FA04F421EA0401994005FA03F322EAA2
:10116C000303194300280BDB0901C9B200F16040ED
:10117C0000F5614080F8001330BC70470023E5E7B0
:10118C0000F00F000901C9B2024B1954F4E700BF7B
:10119C0000ED00E014ED00E0002807DB00F01F027A
:1011AC00400901239340024A42F82030704700BFA7
:1011BC0000E100E00138B0F1807F0AD2064B5860A4
:1011CC00064AF02182F823100020986007221A604A
:1011DC0070470120704700BF10E000E000ED00E018
:1011EC0070B4036A23F001030362036A46688269E0
:1011FC0022F073020C6844EA020523F002028B68A9
:10120C0013430D4CA04209D00B4CA0420DD04660AC
:10121C0085614A684263036270BC704723F008031F
:10122C00CA68134323F00403EEE726F440764A69B8
:10123C0032438E691643EAE7002C014030B4036A4E
:10124C0023F480730362036A4568C26922F0730257
:10125C000C68224323F400738C6843EA04230F4C7C
:10126C00A04209D00D4CA0420ED04560C2614A6824
:10127C00C263036230BC704723F40063CC6843EA5A
:10128C00042323F48063EDE725F440554C6945EACB
:10129C0004158C6945EA0415E7E700BF002C0140F2
:1012AC0030B4036A23F480530362036A4468C2694E
:1012BC0022F4E6420D6842EA052223F400538D68BD
:1012CC0043EA0533074DA84206D04460C2614A6820
:1012DC000264036230BC704724F480444D6944EAD4
:1012EC008514F2E7002C014030B4036A056A25F03E
:1012FC0001050562846924F0F00444EA021423F029
:10130C000A030B438461036230BC704730B4056A36
:10131C0025F0100505628469056A24F4407444EADA
:10132C00022424F470441B039BB2234325F0A00534
:10133C00090101F0A00129438361016230BC7047AF
:10134C0030B4056A25F0100505628469036A24F43B
:10135C00704444EA023423F0A00343EA011384618D
:10136C00036230BC704730B4056A25F480750562A1
:10137C00C469056A24F00304144324F0F0041B012F
:10138C00DBB2234325F40075090201F400712943F3
:10139C00C361016230BC704730B4056A25F48055D6
:1013AC000562C469056A24F4407444EA022424F4F6
:1013BC0070441B039BB2234325F40055090301F42D
:1013CC0000512943C361016230BC7047836823F02C
:1013DC0070030B4343F007038360704770477047FB
:1013EC007047704770477047704710B504460368E4
:1013FC001A6912F0020F11D0DA6812F0020F0DD038
:10140C006FF002021A610123037703689B6913F0E2
:10141C00030F70D0FFF7E6FF0023237723681A69C8
:10142C0012F0040F12D0DA6812F0040F0ED06FF025
:10143C0004021A610223237723689B6913F4407F0B
:10144C005FD02046FFF7CEFF0023237723681A696D
:10145C0012F0080F12D0DA6812F0080F0ED06FF0ED
:10146C0008021A61042323772368DB6913F0030F46
:10147C004ED02046FFF7B6FF0023237723681A6966
:10148C0012F0100F12D0DA6812F0100F0ED06FF0AD
:10149C0010021A61082323772368DB6913F4407F59
:1014AC003DD02046FFF79EFF0023237723681A695F
:1014BC0012F0010F03D0DA6812F0010F36D1236855
:1014CC001A6912F0800F03D0DA6812F0800F34D151
:1014DC0023681A6912F0400F03D0DA6812F0400F3B
:1014EC0032D123681A6912F0200F03D0DA6812F097
:1014FC00200F30D110BDFFF774FF2046FFF773FFAC
:10150C008AE72046FFF76DFF2046FFF76CFF9BE74D
:10151C002046FFF766FF2046FFF765FFACE7204645
:10152C00FFF75FFF2046FFF75EFFBDE76FF001029C
:10153C001A612046FFF754FFC1E76FF080021A6171
:10154C00204600F09AFAC3E76FF040021A61204679
:10155C00FFF74AFFC5E76FF020021A61204600F042
:10156C008BFAC7E703681B4A90420AD0B0F1804F50
:10157C0007D0A2F59432904203D002F580629042DB
:10158C0003D123F070034A681343124A90420AD0E5
:10159C00B0F1804F07D0A2F59432904203D002F5FF
:1015AC008062904203D123F44073CA68134323F042
:1015BC0080034A69134303608B68C3620B688362C0
:1015CC00044B984202D00123436170470B690363BB
:1015DC00F9E700BF002C014040B310B5044690F869
:1015EC003D30F3B1022384F83D30214651F8040B11
:1015FC00FFF7B8FF012384F8463084F83E3084F8B6
:10160C003F3084F8403084F8413084F8423084F81C
:10161C00433084F8443084F8453084F83D30002061
:10162C0010BD80F83C30FEF701FFDBE7012070476E
:10163C0040B310B5044690F83D30F3B1022384F862
:10164C003D30214651F8040BFFF78CFF012384F841
:10165C00463084F83E3084F83F3084F8403084F8CB
:10166C00413084F8423084F8433084F8443084F8B4
:10167C00453084F83D30002010BD80F83C30FFF739
:10168C00ADFEDBE70120704740B310B5044690F87F
:10169C003D30F3B1022384F83D30214651F8040B60
:1016AC00FFF760FF012384F8463084F83E3084F85D
:1016BC003F3084F8403084F8413084F8423084F86C
:1016CC00433084F8443084F8453084F83D300020B1
:1016DC0010BD80F83C30FFF782FEDBE7012070473D
:1016EC0030B4036A23F010030362036A446882690E
:1016FC0022F4E6420D6842EA052223F020038D68AD
:10170C0043EA05130E4DA84209D00D4DA8420ED048
:10171C00446082614A688263036230BC704723F084
:10172C008003CD6843EA051323F04003EDE724F46E
:10173C0040644D6944EA85048D6944EA8504E7E711
:10174C00002C014038B590F83C30012B60D0044699
:10175C000D46012380F83C300C2A1AD8DFE802F041
:10176C00071919191D19191931191919440000688B
:10177C00FFF736FD2268936943F0080393612268F2
:10178C00936923F0040393612268936929690B43DD
:10179C009361002084F83C0038BD0068FFF7A0FF7F
:1017AC002268936943F4006393612268936923F47C
:1017BC008063936122689369296943EA01239361E9
:1017CC00E7E70068FFF73AFD2268D36943F00803A6
:1017DC00D3612268D36923F00403D3612268D369EF
:1017EC0029690B43D361D4E70068FFF759FD2268E0
:1017FC00D36943F40063D3612268D36923F4806313
:10180C00D3612268D369296943EA0123D361C0E714
:10181C000220C1E770B4046A24F0010404628469F4
:10182C00056A114EB0420DD0B0F1804F0AD0A6F52A
:10183C009436B04206D006F58066B04202D044F031
:10184C00010202E024F00304224322F0F0021B0107
:10185C00DBB2134325F00A0201F00A011143836144
:10186C00016270BC704700BF002C014038B590F885
:10187C003C30012B52D004460D46012380F83C30FD
:10188C00C2B1042A27D0082A37D0CB684A68096825
:10189C000068FFF781FD2268D36923F44063D361AC
:1018AC002268D369A96843EA0123D361002084F834
:1018BC003C0038BDCB684A6809680068FFF7AAFF8E
:1018CC002268936923F00C03936122689369A968D9
:1018DC000B439361EAE7CB684A6809680068FFF735
:1018EC0015FD2268936923F4406393612268936920
:1018FC00A96843EA01239361D8E7CB684A68096871
:10190C000068FFF730FD2268D36923F00C03D36124
:10191C002268D369A9680B43D361C7E70220C8E7E3
:10192C0010B4846824F47F4442EA03220A4322431D
:10193C00826010BC704790F83C30012B66D010B51B
:10194C000446012380F83C30022380F83D300268C5
:10195C00936823F47F4323F0770393600B68602B29
:10196C0040D022D8402B47D00BD9502B0ED1CA686F
:10197C0049680068FFF7B8FC50212068FFF726FD86
:10198C0004E0202B0CD008D9302B09D0012384F88B
:10199C003D30002084F83C0010BD0BB1102BF5D16C
:1019AC0019462068FFF712FDF0E7702B0ED0B3F547
:1019BC00005FEBD1CB684A6889680068FFF7B0FF1D
:1019CC002268936843F480439360DFE7CB684A68EE
:1019DC0089680068FFF7A4FF2268936843F07703D7
:1019EC009360D3E7CA6849680068FFF7A9FC6021D7
:1019FC002068FFF7EBFCC9E7CA6849680068FFF785
:101A0C0073FC40212068FFF7E1FCBFE70220704720
:101A1C0090F83C30012B2BD030B4012380F83C30B3
:101A2C00022380F83D3003685C689D6824F07004E4
:101A3C000A6822435A6003680E4A93420AD0B3F1F3
:101A4C00804F07D0A2F59432934203D002F5806206
:101A5C00934204D125F080054A6815439D6001230B
:101A6C0080F83D30002380F83C30184630BC70477D
:101A7C0002207047002C01407047704770470000EF
:101A8C000C480D490D4A002302E0D458C4500433CD
:101A9C00C4188C42F9D30A4A0A4C002301E01360A3
:101AAC000432A242FBD3FFF7E9FF00F00FF8FEF778
:101ABC007AFB7047000000200C0000206C1B000813
:101ACC000C00002010010020FEE7000070B500267D
:101ADC000C4D0D4C641BA410A64209D100F01AF851
:101AEC0000260A4D0A4C641BA410A64205D170BDF9
:101AFC0055F8043B98470136EEE755F8043B9847F8
:101B0C000136F2E7641B0008641B0008641B000824
:101B1C00681B0008F8B500BFF8BC08BC9E467047AF
:0C1B2C00F8B500BFF8BC08BC9E4670472E
:101B380002030405060708090A0B0C0D0E0F101006
:101B48000000000000000000000000000102030483
:0C1B580006070809000000000102030459
:041B64003101000843
:041B68000D01000863
:0C1B6C0001000000100000000024F40044
:0400000508001A8D48
:00000001FF
